{
  "contractName": "MessageStorage",
  "abi": [
    {
      "anonymous": false,
      "inputs": [
        {
          "indexed": true,
          "internalType": "address",
          "name": "user",
          "type": "address"
        },
        {
          "indexed": false,
          "internalType": "string",
          "name": "message",
          "type": "string"
        }
      ],
      "name": "MessageStored",
      "type": "event"
    },
    {
      "inputs": [
        {
          "internalType": "string",
          "name": "_message",
          "type": "string"
        }
      ],
      "name": "storeMessage",
      "outputs": [],
      "stateMutability": "nonpayable",
      "type": "function"
    },
    {
      "inputs": [],
      "name": "retrieveMessage",
      "outputs": [
        {
          "internalType": "string",
          "name": "",
          "type": "string"
        }
      ],
      "stateMutability": "view",
      "type": "function",
      "constant": true
    }
  ],
  "bytecode": "0x608060405234801561001057600080fd5b50610711806100206000396000f3fe608060405234801561001057600080fd5b50600436106100365760003560e01c8063485caefc1461003b578063d4e36ba714610059575b600080fd5b610043610075565b60405161005091906104f5565b60405180910390f35b610073600480360381019061006e91906103b5565b61018d565b005b606060008060003373ffffffffffffffffffffffffffffffffffffffff1673ffffffffffffffffffffffffffffffffffffffff16815260200190815260200160002080546100c2906105d5565b80601f01602080910402602001604051908101604052809291908181526020018280546100ee906105d5565b801561013b5780601f106101105761010080835404028352916020019161013b565b820191906000526020600020905b81548152906001019060200180831161011e57829003601f168201915b505050505090506000815111610186576040517f08c379a000000000000000000000000000000000000000000000000000000000815260040161017d90610557565b60405180910390fd5b8091505090565b600082829050116101d3576040517f08c379a00000000000000000000000000000000000000000000000000000000081526004016101ca90610537565b60405180910390fd5b606482829050111561021a576040517f08c379a000000000000000000000000000000000000000000000000000000000815260040161021190610517565b60405180910390fd5b81816000803373ffffffffffffffffffffffffffffffffffffffff1673ffffffffffffffffffffffffffffffffffffffff16815260200190815260200160002091906102679291906102bc565b503373ffffffffffffffffffffffffffffffffffffffff167fc3c5e7649f21b5b486d54682c6fd9bb40c3fa82d872beac86e926d70f9a8df4b83836040516102b09291906104d1565b60405180910390a25050565b8280546102c8906105d5565b90600052602060002090601f0160209004810192826102ea5760008555610331565b82601f1061030357803560ff1916838001178555610331565b82800160010185558215610331579182015b82811115610330578235825591602001919060010190610315565b5b50905061033e9190610342565b5090565b5b8082111561035b576000816000905550600101610343565b5090565b60008083601f8401126103755761037461063b565b5b8235905067ffffffffffffffff81111561039257610391610636565b5b6020830191508360018202830111156103ae576103ad610640565b5b9250929050565b600080602083850312156103cc576103cb61064a565b5b600083013567ffffffffffffffff8111156103ea576103e9610645565b5b6103f68582860161035f565b92509250509250929050565b600061040e8385610582565b935061041b838584610593565b6104248361064f565b840190509392505050565b600061043a82610577565b6104448185610582565b93506104548185602086016105a2565b61045d8161064f565b840191505092915050565b6000610475601e83610582565b915061048082610660565b602082019050919050565b6000610498601783610582565b91506104a382610689565b602082019050919050565b60006104bb601e83610582565b91506104c6826106b2565b602082019050919050565b600060208201905081810360008301526104ec818486610402565b90509392505050565b6000602082019050818103600083015261050f818461042f565b905092915050565b6000602082019050818103600083015261053081610468565b9050919050565b600060208201905081810360008301526105508161048b565b9050919050565b60006020820190508181036000830152610570816104ae565b9050919050565b600081519050919050565b600082825260208201905092915050565b82818337600083830152505050565b60005b838110156105c05780820151818401526020810190506105a5565b838111156105cf576000848401525b50505050565b600060028204905060018216806105ed57607f821691505b6020821081141561060157610600610607565b5b50919050565b7f4e487b7100000000000000000000000000000000000000000000000000000000600052602260045260246000fd5b600080fd5b600080fd5b600080fd5b600080fd5b600080fd5b6000601f19601f8301169050919050565b7f4d65737361676520657863656564732031303020636861726163746572730000600082015250565b7f4d6573736167652063616e6e6f7420626520656d707479000000000000000000600082015250565b7f4e6f206d65737361676520666f756e6420666f7220746869732075736572000060008201525056fea26469706673582212203717ec9cf35997588d955783d94c88351cf515a652f1bad928682d6bb76dba1064736f6c63430008070033",
  "immutableReferences": {},
  "source": "// SPDX-License-Identifier: MIT\r\npragma solidity ^0.8.0;\r\n\r\ncontract MessageStorage {\r\n\r\n    mapping(address => string) private messages;\r\n\r\n\r\n    event MessageStored(address indexed user, string message);\r\n\r\n    function storeMessage(string calldata _message) external {\r\n        require(bytes(_message).length > 0, \"Message cannot be empty\");\r\n        require(bytes(_message).length <= 100, \"Message exceeds 100 characters\");\r\n\r\n        messages[msg.sender] = _message;\r\n\r\n        emit MessageStored(msg.sender, _message);\r\n    }\r\n\r\n    \r\n    function retrieveMessage() external view returns (string memory) {\r\n        string memory userMessage = messages[msg.sender];\r\n        require(bytes(userMessage).length > 0, \"No message found for this user\");\r\n\r\n        return userMessage;\r\n    }\r\n}\r\n",
  "sourcePath": "C:\\Users\\Harsh Iceball\\Desktop\\IdentityManager\\contracts\\SecureMessageStore.sol",
  "compiler": {
    "name": "solc",
    "version": "0.8.7+commit.e28d00a7.Emscripten.clang"
  },
  "schemaVersion": "3.4.16",
  "updatedAt": "2024-11-15T17:15:58.411Z",
  "networkType": "ethereum",
  "devdoc": {
    "kind": "dev",
    "methods": {},
    "version": 1
  },
  "userdoc": {
    "kind": "user",
    "methods": {},
    "version": 1
  }
}